:10000000020EB63099FDC2998F99220203F7E709D3
:10001000F608DFFA8046E709F208DFFA803E8882B8
:100020008C83E709F0A3DFFA8032E309F608DFFAF0
:100030008078E309F208DFFA807088828C83E30914
:10004000F0A3DFFA806489828A83E0A3F608DFFAEE
:10005000805889828A83E0A3F208DFFA804C80D23C
:1000600080FA80C680D4806980F28033801080A6B8
:1000700080EA809A80A880DA80E280CA8033898210
:100080008A83ECFAE493A3C8C582C8CCC583CCF0BC
:10009000A3C8C582C8CCC583CCDFE9DEE7800D8963
:1000A000828A83E493A3F608DFF9ECFAA9F0EDFB6A
:1000B0002289828A83ECFAE0A3C8C582C8CCC583B2
:1000C000CCF0A3C8C582C8CCC583CCDFEADEE8800B
:1000D000DB89828A83E493A3F208DFF980CC88F07D
:1000E000EF60010E4E60C388F0ED2402B4040050AE
:1000F000B9F582EB2402B4040050AF2323458223D8
:1001000090005E73BB010CE58229F582E5833AF528
:1001100083E0225006E92582F8E622BBFE06E925A7
:1001200082F8E222E58229F582E5833AF583E493B9
:100130002275F008758200EF2FFFEE33FECD33CD30
:10014000CC33CCC58233C5829BED9AEC99E582987D
:10015000400CF582EE9BFEED9AFDEC99FC0FD5F07C
:10016000D6E4CEFBE4CDFAE4CCF9A88222B800C1F3
:10017000B90059BA002DEC8BF084CFCECDFCE5F060
:10018000CBF97818EF2FFFEE33FEED33FDEC33FCA7
:10019000EB33FB10D703994004EB99FB0FD8E5E450
:1001A000F9FA227818EF2FFFEE33FEED33FDEC3332
:1001B000FCC933C910D7059BE99A4007EC9BFCE9C1
:1001C0009AF90FD8E0E4C9FAE4CCFB2275F010EFFD
:1001D0002FFFEE33FEED33FDCC33CCC833C810D740
:1001E000079BEC9AE899400AED9BFDEC9AFCE89994
:1001F000F80FD5F0DAE4CDFBE4CCFAE4C8F922E854
:100200006010ECA2E713FCED13FDEE13FEEF13FFFD
:10021000D8F022EC8EF0A4CCC5F0CCCDF8EFA4CE73
:10022000C5F02DFDE43CFCE8A42EC8C5F03DFDE47E
:100230003CFCEFA4FFE5F028FEE43DFDE43CFC229D
:10024000EF7005C2A0C2A922BF6405D2A0C2A92234
:10025000AC57AD587E00120213E47B64FAF9F81231
:10026000016D8E558F56C3E5589556F552E5579555
:1002700055F551AB07AA06E4C39BFFE49AFE74014F
:100280009400FDE49400FC78081201FF8F53E4C34E
:100290009BFFE48F54AE51AF52AB07AA06C39BFF3E
:1002A000E49AFE74019400FDE49400FC78081201C5
:1002B000FF8F59E4C39BFF8F5AD2A922D2A0538942
:1002C000F0438901D2A9D2AF8E578F58E557C31397
:1002D000F555E55813F556C3E5589556F552E557CB
:1002E0009555F551AE55AF56AB07AA06E4C39BFF33
:1002F000E49AFE74019400FDE49400FC7808120175
:10030000FF8F53E4C39BFFE48F54AE51AF52AB0752
:10031000AA06C39BFFE49AFE74019400FDE49400D6
:10032000FC78081201FF8F59E4C39BFF8F5A855355
:100330008C85548A227F301203C77F057E0012030A
:10034000887F301203C77F017E001203887F30123E
:1003500003C77F381203C77F011203C77F0C020354
:10036000C78B4D8A4E894FE4F550AB4DAA4EA94F2D
:10037000AF50EF3395E08F82F583120104FF6007E1
:1003800012040A055080E322E4FDFCC3ED9FEC9EBD
:100390005015E4FBFA0BBB00010AEB647B4A70F5D5
:1003A0000DBD00010C80E4228B4A8A4B894CBF01B1
:1003B000047F8080027FC0EF2D14FF1203C7AB4A79
:1003C000AA4BA94C020361C2A68F80C2A7D2A7D3B1
:1003D000EF6480948250047F0280027F017E0012CD
:1003E000038822C29FD29E53890F758920758DFD87
:1003F000D28ED299D29C22B2A020A00785598C859A
:100400005A8A3285538C85548A32D2A68F80C2A7ED
:10041000D2A77F017E000203883098FDC298AF9971
:1004200022A298E433FF22D28C2256656869636C5D
:100430006520312020202020202000566568696337
:100440006C6520322020202020202000566568691D
:10045000636C652033202020202020200056656812
:1004600069636C6520342020202020202000416317
:10047000636573732064656E696564202020005293
:100480004649442069733A20005246494420697322
:100490003A20202020202020200020202020202062
:1004A000202020202020202020200056656869631D
:1004B0006C6520446574656374656400596F75727A
:1004C00020636172642C20706C73202000596F755A
:1004D000206D6179207061737320202020005761A6
:1004E0006974696E672E2E2E202020202020005354
:1004F000656E64696E6720646174612E2E2E200023
:10050000446174612073656E7420202020202020B7
:10051000007375636365737366756C6C7921202055
:1005200020002020202020202020202020202020EB
:1005300020206162636465666768696A6B6C6D6ED2
:100540006F707172737475767778797AFF042AFF09
:0B055000043BFF044CFF045DFF046E41
:10080000E4F508F509780C7C00FD7BFF7A05792278
:10081000FE7F101200DE781C7C007D007BFF7A05D5
:1008200079327E007F1A1200DE78377C007D007BF3
:10083000FF7A05794C7E007F0F1200DE7546007549
:100840004701E4F548F549C2A51203357BFF7A0458
:10085000797F7D017F011203A8D2A0D2A14390032A
:10086000E547454670207BFF7A0479897D017F0149
:100870001203A87BFF7A04799A7D017F021203A8F4
:10088000754600754701E54764014546700A2090AA
:10089000CFF54675470280C8E54764024546703289
:1008A000C2A51203351203E37546007547037F6442
:1008B0007E001203887BFF7A0479AB7D017F0112F1
:1008C00003A87BFF7A0479BC7D017F021203A80292
:1008D0000A12E54764034546600302097A120421BF
:1008E000EF7003020860120419EFC394614006EF31
:1008F000D3947A401BEFC394414006EFD3945A40FF
:100900000FEFC394304006EFD394394003BF200E5D
:100910000509E5097002050814240CF8A607C3E5CB
:10092000099402E50894005003020860E50D943133
:100930004027E50DD394345020E50D75F003A42431
:10094000A4F8860308E6FA08E6F97D017F0212039F
:10095000A87546007547048019AB43AA44A9457D94
:10096000017F021203A87FB87E0B120388E4F546CC
:10097000F547E4F508F509020860E54764044546D3
:1009800070447FD07E071203887F207E4E1202BC07
:10099000E4FF1202401204277FE87E031203887FDF
:1009A000011203C77BFF7A0479CD7D017F02120318
:1009B000A87F051202407FB87E0B1203887546009F
:1009C000754705020860E54764054546702E20918D
:1009D000147F0A1202407FB87E0B1203887546000E
:1009E000754706C2AF7F647E001203887BFF7A04DE
:1009F00079DE7D017F021203A8020860E5476406E4
:100A000045467014C2A51203351203E375460075FE
:100A100047077F647E00803EE54764074546703C9B
:100A2000AF0D120003120421EF70030208601204DC
:100A3000198F36E536646160030208607BFF7A0433
:100A400079EF7D017F021203A8754600754708E41F
:100A5000F5997FD07E07120388020860E547640895
:100A6000454660030208607F62120003120421EF12
:100A700070030208601204198F36E5366463600360
:100A8000020860F546F5477BFF7A0579007D017F16
:100A9000011203A87BFF7A0579117D017F02120301
:0B0AA000A87FB87E0B120388020860DC
:0C0EB600787FE4F6D8FD75815A02080030
:00000001FF
